{
    "contractName": "votacao",
    "abi": [
        {
            "constant": true,
            "inputs": [
                {
                    "internalType": "string",
                    "name": "digito",
                    "type": "string"
                }
            ],
            "name": "getNumVotes",
            "outputs": [
                {
                    "internalType": "uint32",
                    "name": "",
                    "type": "uint32"
                }
            ],
            "payable": false,
            "stateMutability": "view",
            "type": "function"
        },
        {
            "constant": false,
            "inputs": [
                {
                    "internalType": "string",
                    "name": "nome",
                    "type": "string"
                },
                {
                    "internalType": "string",
                    "name": "partido",
                    "type": "string"
                },
                {
                    "internalType": "string",
                    "name": "digito",
                    "type": "string"
                }
            ],
            "name": "addCandidato",
            "outputs": [],
            "payable": false,
            "stateMutability": "nonpayable",
            "type": "function"
        },
        {
            "constant": true,
            "inputs": [
                {
                    "internalType": "string",
                    "name": "digito",
                    "type": "string"
                }
            ],
            "name": "getCandidato",
            "outputs": [
                {
                    "internalType": "string",
                    "name": "",
                    "type": "string"
                }
            ],
            "payable": false,
            "stateMutability": "view",
            "type": "function"
        },
        {
            "constant": true,
            "inputs": [
                {
                    "internalType": "string",
                    "name": "digito",
                    "type": "string"
                }
            ],
            "name": "getId",
            "outputs": [
                {
                    "internalType": "uint32",
                    "name": "",
                    "type": "uint32"
                }
            ],
            "payable": false,
            "stateMutability": "view",
            "type": "function"
        },
        {
            "constant": false,
            "inputs": [
                {
                    "internalType": "string",
                    "name": "digito",
                    "type": "string"
                }
            ],
            "name": "votar",
            "outputs": [
                {
                    "internalType": "string",
                    "name": "",
                    "type": "string"
                }
            ],
            "payable": false,
            "stateMutability": "nonpayable",
            "type": "function"
        },
        {
            "inputs": [],
            "payable": false,
            "stateMutability": "nonpayable",
            "type": "constructor"
        },
        {
            "anonymous": false,
            "inputs": [
                {
                    "indexed": false,
                    "internalType": "string",
                    "name": "nome",
                    "type": "string"
                },
                {
                    "indexed": false,
                    "internalType": "string",
                    "name": "digito",
                    "type": "string"
                }
            ],
            "name": "eAddCandidato",
            "type": "event"
        }
    ],
    "bytecode": "60806040526001805463ffffffff60a01b1916905534801561002057600080fd5b50600180546001600160a01b031916331790556110a3806100426000396000f3fe608060405234801561001057600080fd5b50600436106100575760003560e01c80630b0a8cb41461005c5780633bad37aa146101195780639f9ef586146102c9578063bee51f3b146103e2578063ce3fe64114610486575b600080fd5b6101006004803603602081101561007257600080fd5b810190602081018135600160201b81111561008c57600080fd5b82018360208201111561009e57600080fd5b803590602001918460018302840111600160201b831117156100bf57600080fd5b91908080601f01602080910402602001604051908101604052809392919081815260200183838082843760009201919091525092955061052a945050505050565b6040805163ffffffff9092168252519081900360200190f35b6102c76004803603606081101561012f57600080fd5b810190602081018135600160201b81111561014957600080fd5b82018360208201111561015b57600080fd5b803590602001918460018302840111600160201b8311171561017c57600080fd5b91908080601f0160208091040260200160405190810160405280939291908181526020018383808284376000920191909152509295949360208101935035915050600160201b8111156101ce57600080fd5b8201836020820111156101e057600080fd5b803590602001918460018302840111600160201b8311171561020157600080fd5b91908080601f0160208091040260200160405190810160405280939291908181526020018383808284376000920191909152509295949360208101935035915050600160201b81111561025357600080fd5b82018360208201111561026557600080fd5b803590602001918460018302840111600160201b8311171561028657600080fd5b91908080601f01602080910402602001604051908101604052809392919081815260200183838082843760009201919091525092955061062d945050505050565b005b61036d600480360360208110156102df57600080fd5b810190602081018135600160201b8111156102f957600080fd5b82018360208201111561030b57600080fd5b803590602001918460018302840111600160201b8311171561032c57600080fd5b91908080601f0160208091040260200160405190810160405280939291908181526020018383808284376000920191909152509295506108ba945050505050565b6040805160208082528351818301528351919283929083019185019080838360005b838110156103a757818101518382015260200161038f565b50505050905090810190601f1680156103d45780820380516001836020036101000a031916815260200191505b509250505060405180910390f35b610100600480360360208110156103f857600080fd5b810190602081018135600160201b81111561041257600080fd5b82018360208201111561042457600080fd5b803590602001918460018302840111600160201b8311171561044557600080fd5b91908080601f016020809104026020016040519081016040528093929190818152602001838380828437600092019190915250929550610b33945050505050565b61036d6004803603602081101561049c57600080fd5b810190602081018135600160201b8111156104b657600080fd5b8201836020820111156104c857600080fd5b803590602001918460018302840111600160201b831117156104e957600080fd5b91908080601f016020809104026020016040519081016040528093929190818152602001838380828437600092019190915250929550610b8b945050505050565b6000805b600054811015610626576105e96000828154811061054857fe5b6000918252602091829020600360059092020101805460408051601f60026000196101006001871615020190941693909304928301859004850281018501909152818152928301828280156105de5780601f106105b3576101008083540402835291602001916105de565b820191906000526020600020905b8154815290600101906020018083116105c157829003601f168201915b505050505084610cae565b1561061e57600081815481106105fb57fe5b600091825260209091206004600590920201015463ffffffff1691506106289050565b60010161052e565b505b919050565b6001546001600160a01b031633146106765760405162461bcd60e51b815260040180806020018281038252603581526020018061103a6035913960400191505060405180910390fd5b61067e610f63565b602081810185815260408301859052606083018490526001805463ffffffff60a01b198116600160a01b9182900463ffffffff90811680850182169093029190911783559085526000805492830180825590805285517f290decd9548b62a8d60345a988386fc84ba6bc95484008f6362f93160ef3e5636005909402938401805463ffffffff19169190931617825592518051939486949293610749937f290decd9548b62a8d60345a988386fc84ba6bc95484008f6362f93160ef3e5649091019290910190610f9e565b5060408201518051610765916002840191602090910190610f9e565b5060608201518051610781916003840191602090910190610f9e565b5060808201518160040160006101000a81548163ffffffff021916908363ffffffff1602179055505050507f5635572de5aa01c9d78d96a62f63083d2b92864ab3f7bddefe2f9cdc83569bd081602001518260600151604051808060200180602001838103835285818151815260200191508051906020019080838360005b83811015610818578181015183820152602001610800565b50505050905090810190601f1680156108455780820380516001836020036101000a031916815260200191505b50838103825284518152845160209182019186019080838360005b83811015610878578181015183820152602001610860565b50505050905090810190601f1680156108a55780820380516001836020036101000a031916815260200191505b5094505050505060405180910390a150505050565b606060005b600054811015610626576108d96000828154811061054857fe5b15610b2b57610b23600082815481106108ee57fe5b90600052602060002090600502016001018054600181600116156101000203166002900480601f0160208091040260200160405190810160405280929190818152602001828054600181600116156101000203166002900480156109935780601f1061096857610100808354040283529160200191610993565b820191906000526020600020905b81548152906001019060200180831161097657829003601f168201915b5050505050604051806040016040528060018152602001600b60fa1b815250600084815481106109bf57fe5b600091825260209182902060026005909202018101805460408051601f600019610100600186161502019093169490940491820185900485028401850190528083529192909190830182828015610a575780601f10610a2c57610100808354040283529160200191610a57565b820191906000526020600020905b815481529060010190602001808311610a3a57829003601f168201915b5050505050604051806040016040528060018152602001600b60fa1b81525060008681548110610a8357fe5b6000918252602091829020600360059092020101805460408051601f6002600019610100600187161502019094169390930492830185900485028101850190915281815292830182828015610b195780601f10610aee57610100808354040283529160200191610b19565b820191906000526020600020905b815481529060010190602001808311610afc57829003601f168201915b5050505050610cc4565b915050610628565b6001016108bf565b6000805b60005481101561062657610b516000828154811061054857fe5b15610b835760008181548110610b6357fe5b600091825260209091206005909102015463ffffffff1691506106289050565b600101610b37565b606060005b60005481101561062657610baa6000828154811061054857fe5b15610ca65760008181548110610bbc57fe5b600091825260208220600460059092020101805463ffffffff8082166001011663ffffffff19909116179055805482908110610bf457fe5b90600052602060002090600502016001018054600181600116156101000203166002900480601f016020809104026020016040519081016040528092919081815260200182805460018160011615610100020316600290048015610c995780601f10610c6e57610100808354040283529160200191610c99565b820191906000526020600020905b815481529060010190602001808311610c7c57829003601f168201915b5050505050915050610628565b600101610b90565b6000610cba8383610e60565b1590505b92915050565b606085858585856040516020018086805190602001908083835b60208310610cfd5780518252601f199092019160209182019101610cde565b51815160209384036101000a600019018019909216911617905288519190930192880191508083835b60208310610d455780518252601f199092019160209182019101610d26565b51815160209384036101000a600019018019909216911617905287519190930192870191508083835b60208310610d8d5780518252601f199092019160209182019101610d6e565b51815160209384036101000a600019018019909216911617905286519190930192860191508083835b60208310610dd55780518252601f199092019160209182019101610db6565b51815160209384036101000a600019018019909216911617905285519190930192850191508083835b60208310610e1d5780518252601f199092019160209182019101610dfe565b6001836020036101000a03801982511681845116808217855250505050505090500195505050505050604051602081830303815290604052905095945050505050565b815181516000918491849190811115610e77575080515b60005b81811015610f2957828181518110610e8e57fe5b602001015160f81c60f81b6001600160f81b031916848281518110610eaf57fe5b01602001516001600160f81b0319161015610ed257600019945050505050610cbe565b828181518110610ede57fe5b602001015160f81c60f81b6001600160f81b031916848281518110610eff57fe5b01602001516001600160f81b0319161115610f21576001945050505050610cbe565b600101610e7a565b50815183511015610f41576000199350505050610cbe565b815183511115610f575760019350505050610cbe565b60009350505050610cbe565b6040518060a00160405280600063ffffffff168152602001606081526020016060815260200160608152602001600063ffffffff1681525090565b828054600181600116156101000203166002900490600052602060002090601f016020900481019282601f10610fdf57805160ff191683800117855561100c565b8280016001018555821561100c579182015b8281111561100c578251825591602001919060010190610ff1565b5061101892915061101c565b5090565b61103691905b808211156110185760008155600101611022565b9056fe736f6d656e7465206f20646f6e6f20646f20636f6e747261746f20706f64652061646963696f6e61722063616e64696461746f7321a265627a7a7231582040fe03285bfb910abd31199960e896a4039e5fee33e8540057fcb90bc9506a8464736f6c634300050b0032",
    "sourcePath": "c:/Users/webjump-nb013/Documents/TCC/Solidity_learn/votacao.sol",
    "compiler": {
        "name": "solc",
        "version": "0.5.11+commit.c082d0b4"
    },
    "functionHashes": {
        "addCandidato(string,string,string)": "3bad37aa",
        "getCandidato(string)": "9f9ef586",
        "getId(string)": "bee51f3b",
        "getNumVotes(string)": "0b0a8cb4",
        "votar(string)": "ce3fe641"
    },
    "gasEstimates": {
        "creation": {
            "codeDepositCost": "851800",
            "executionCost": "41349",
            "totalCost": "893149"
        },
        "external": {
            "addCandidato(string,string,string)": "infinite",
            "getCandidato(string)": "infinite",
            "getId(string)": "infinite",
            "getNumVotes(string)": "infinite",
            "votar(string)": "infinite"
        },
        "internal": {
            "append(string memory,string memory,string memory,string memory,string memory)": "infinite",
            "compare(string memory,string memory)": "infinite",
            "compareStrings(string memory,string memory)": "infinite",
            "equal(string memory,string memory)": "infinite"
        }
    }
}