{
  "contractName": "votacao",
  "abi": [
    {
      "inputs": [],
      "payable": false,
      "stateMutability": "nonpayable",
      "type": "constructor"
    },
    {
      "anonymous": false,
      "inputs": [
        {
          "indexed": false,
          "name": "nome",
          "type": "string"
        },
        {
          "indexed": false,
          "name": "digito",
          "type": "uint16"
        }
      ],
      "name": "eAddCandidato",
      "type": "event"
    },
    {
      "constant": false,
      "inputs": [
        {
          "name": "nome",
          "type": "string"
        },
        {
          "name": "partido",
          "type": "string"
        },
        {
          "name": "digito",
          "type": "uint16"
        }
      ],
      "name": "addCandidato",
      "outputs": [],
      "payable": false,
      "stateMutability": "nonpayable",
      "type": "function"
    },
    {
      "constant": true,
      "inputs": [
        {
          "name": "digito",
          "type": "uint16"
        }
      ],
      "name": "get",
      "outputs": [
        {
          "components": [
            {
              "name": "nome",
              "type": "string"
            },
            {
              "name": "partido",
              "type": "string"
            },
            {
              "name": "digito",
              "type": "uint16"
            }
          ],
          "name": "",
          "type": "tuple"
        }
      ],
      "payable": false,
      "stateMutability": "view",
      "type": "function"
    }
  ],
  "bytecode": "0x608060405234801561001057600080fd5b5033600160006101000a81548173ffffffffffffffffffffffffffffffffffffffff021916908373ffffffffffffffffffffffffffffffffffffffff1602179055506108e9806100616000396000f3fe608060405234801561001057600080fd5b50600436106100365760003560e01c8063af048c9c1461003b578063b3fd15a014610057575b600080fd5b6100556004803603610050919081019061054a565b610087565b005b610071600480360361006c91908101906105c9565b61021a565b60405161007e919061078f565b60405180910390f35b3373ffffffffffffffffffffffffffffffffffffffff16600160009054906101000a900473ffffffffffffffffffffffffffffffffffffffff1673ffffffffffffffffffffffffffffffffffffffff1614610117576040517f08c379a000000000000000000000000000000000000000000000000000000000815260040161010e9061076f565b60405180910390fd5b61011f610417565b83816000018190525082816020018190525081816040019061ffff16908161ffff168152505060008190806001815401808255809150509060018203906000526020600020906003020160009091929091909150600082015181600001908051906020019061018f92919061043c565b5060208201518160010190805190602001906101ac92919061043c565b5060408201518160020160006101000a81548161ffff021916908361ffff1602179055505050507f8c217a97a2d105d0309c0a99ef8c3af1cba8022fe6083955c0c2976d2846d0d98160000151826040015160405161020c92919061073f565b60405180910390a150505050565b610222610417565b60008090505b600080549050811015610410578261ffff166000828154811061024757fe5b906000526020600020906003020160020160009054906101000a900461ffff1661ffff161415610403576000818154811061027e57fe5b9060005260206000209060030201604051806060016040529081600082018054600181600116156101000203166002900480601f0160208091040260200160405190810160405280929190818152602001828054600181600116156101000203166002900480156103305780601f1061030557610100808354040283529160200191610330565b820191906000526020600020905b81548152906001019060200180831161031357829003601f168201915b50505050508152602001600182018054600181600116156101000203166002900480601f0160208091040260200160405190810160405280929190818152602001828054600181600116156101000203166002900480156103d25780601f106103a7576101008083540402835291602001916103d2565b820191906000526020600020905b8154815290600101906020018083116103b557829003601f168201915b505050505081526020016002820160009054906101000a900461ffff1661ffff1661ffff1681525050915050610412565b8080600101915050610228565b505b919050565b60405180606001604052806060815260200160608152602001600061ffff1681525090565b828054600181600116156101000203166002900490600052602060002090601f016020900481019282601f1061047d57805160ff19168380011785556104ab565b828001600101855582156104ab579182015b828111156104aa57825182559160200191906001019061048f565b5b5090506104b891906104bc565b5090565b6104de91905b808211156104da5760008160009055506001016104c2565b5090565b90565b600082601f8301126104f257600080fd5b8135610505610500826107de565b6107b1565b9150808252602083016020830185838301111561052157600080fd5b61052c838284610845565b50505092915050565b60008135905061054481610898565b92915050565b60008060006060848603121561055f57600080fd5b600084013567ffffffffffffffff81111561057957600080fd5b610585868287016104e1565b935050602084013567ffffffffffffffff8111156105a257600080fd5b6105ae868287016104e1565b92505060406105bf86828701610535565b9150509250925092565b6000602082840312156105db57600080fd5b60006105e984828501610535565b91505092915050565b60006105fd8261080a565b6106078185610815565b9350610617818560208601610854565b61062081610887565b840191505092915050565b60006106368261080a565b6106408185610826565b9350610650818560208601610854565b61065981610887565b840191505092915050565b6000610671603583610826565b91507f736f6d656e7465206f20646f6e6f20646f20636f6e747261746f20706f64652060008301527f61646963696f6e61722063616e64696461746f732100000000000000000000006020830152604082019050919050565b600060608301600083015184820360008601526106e782826105f2565b9150506020830151848203602086015261070182826105f2565b91505060408301516107166040860182610721565b508091505092915050565b61072a81610837565b82525050565b61073981610837565b82525050565b60006040820190508181036000830152610759818561062b565b90506107686020830184610730565b9392505050565b6000602082019050818103600083015261078881610664565b9050919050565b600060208201905081810360008301526107a981846106ca565b905092915050565b6000604051905081810181811067ffffffffffffffff821117156107d457600080fd5b8060405250919050565b600067ffffffffffffffff8211156107f557600080fd5b601f19601f8301169050602081019050919050565b600081519050919050565b600082825260208201905092915050565b600082825260208201905092915050565b600061ffff82169050919050565b82818337600083830152505050565b60005b83811015610872578082015181840152602081019050610857565b83811115610881576000848401525b50505050565b6000601f19601f8301169050919050565b6108a181610837565b81146108ac57600080fd5b5056fea265627a7a723058207aad8dc5e096610fa711c479b37b046f032f496e71a988e490ae327f14c2b37f6c6578706572696d656e74616cf50037",
  "source": "pragma solidity ^0.5.1;\r\npragma experimental ABIEncoderV2;\r\n\r\ncontract votacao {\r\n    candidato[] candidatos;\r\n    address owner;\r\n    \r\n    struct candidato{\r\n        string nome;\r\n        string partido;\r\n        uint16 digito;\r\n    }\r\n    \r\n    \r\n    constructor() public {\r\n        owner = msg.sender;\r\n    }\r\n    \r\n    event eAddCandidato(string nome, uint16 digito);\r\n\r\n    function addCandidato(string memory nome, string memory partido, uint16 digito) public {\r\n        require(owner == msg.sender, \"somente o dono do contrato pode adicionar candidatos!\");\r\n        candidato memory c;\r\n        c.nome = nome;\r\n        c.partido = partido;\r\n        c.digito = digito;\r\n        candidatos.push(c);\r\n        emit eAddCandidato(c.nome, c.digito);\r\n    }\r\n    function get(uint16 digito) public view returns (candidato memory){\r\n        for(uint i=0;i<candidatos.length; i++){\r\n            if(candidatos[i].digito == digito){\r\n                return candidatos[i];\r\n            }\r\n        }\r\n    }\r\n}",
  "sourcePath": "C:/Users/webjump-nb013/Documents/TCC/Solidity_learn/compiledSrc/contracts/votacao.sol",
  "compiler": {
    "name": "solc",
    "version": "0.5.8+commit.23d335f2.Emscripten.clang"
  },
  "schemaVersion": "3.0.16",
  "updatedAt": "2019-10-04T20:51:10.515Z",
  "devdoc": {
    "methods": {}
  },
  "userdoc": {
    "methods": {}
  }
}