{
  "contractName": "votacao",
  "abi": [
    {
      "inputs": [],
      "payable": false,
      "stateMutability": "nonpayable",
      "type": "constructor"
    },
    {
      "constant": false,
      "inputs": [
        {
          "name": "nome",
          "type": "string"
        },
        {
          "name": "partido",
          "type": "string"
        },
        {
          "name": "digito",
          "type": "uint16"
        }
      ],
      "name": "addCandidato",
      "outputs": [],
      "payable": false,
      "stateMutability": "nonpayable",
      "type": "function"
    },
    {
      "constant": true,
      "inputs": [
        {
          "name": "digito",
          "type": "uint16"
        }
      ],
      "name": "get",
      "outputs": [
        {
          "components": [
            {
              "name": "nome",
              "type": "string"
            },
            {
              "name": "partido",
              "type": "string"
            },
            {
              "name": "digito",
              "type": "uint16"
            }
          ],
          "name": "",
          "type": "tuple"
        }
      ],
      "payable": false,
      "stateMutability": "view",
      "type": "function"
    }
  ],
  "bytecode": "0x608060405234801561001057600080fd5b5033600160006101000a81548173ffffffffffffffffffffffffffffffffffffffff021916908373ffffffffffffffffffffffffffffffffffffffff160217905550610830806100616000396000f3fe608060405234801561001057600080fd5b50600436106100365760003560e01c8063af048c9c1461003b578063b3fd15a014610057575b600080fd5b61005560048036036100509190810190610509565b610087565b005b610071600480360361006c9190810190610588565b6101d9565b60405161007e91906106d6565b60405180910390f35b3373ffffffffffffffffffffffffffffffffffffffff16600160009054906101000a900473ffffffffffffffffffffffffffffffffffffffff1673ffffffffffffffffffffffffffffffffffffffff1614610117576040517f08c379a000000000000000000000000000000000000000000000000000000000815260040161010e906106b6565b60405180910390fd5b61011f6103d6565b83816000018190525082816020018190525081816040019061ffff16908161ffff168152505060008190806001815401808255809150509060018203906000526020600020906003020160009091929091909150600082015181600001908051906020019061018f9291906103fb565b5060208201518160010190805190602001906101ac9291906103fb565b5060408201518160020160006101000a81548161ffff021916908361ffff16021790555050505050505050565b6101e16103d6565b60008090505b6000805490508110156103cf578261ffff166000828154811061020657fe5b906000526020600020906003020160020160009054906101000a900461ffff1661ffff1614156103c2576000818154811061023d57fe5b9060005260206000209060030201604051806060016040529081600082018054600181600116156101000203166002900480601f0160208091040260200160405190810160405280929190818152602001828054600181600116156101000203166002900480156102ef5780601f106102c4576101008083540402835291602001916102ef565b820191906000526020600020905b8154815290600101906020018083116102d257829003601f168201915b50505050508152602001600182018054600181600116156101000203166002900480601f0160208091040260200160405190810160405280929190818152602001828054600181600116156101000203166002900480156103915780601f1061036657610100808354040283529160200191610391565b820191906000526020600020905b81548152906001019060200180831161037457829003601f168201915b505050505081526020016002820160009054906101000a900461ffff1661ffff1661ffff16815250509150506103d1565b80806001019150506101e7565b505b919050565b60405180606001604052806060815260200160608152602001600061ffff1681525090565b828054600181600116156101000203166002900490600052602060002090601f016020900481019282601f1061043c57805160ff191683800117855561046a565b8280016001018555821561046a579182015b8281111561046957825182559160200191906001019061044e565b5b509050610477919061047b565b5090565b61049d91905b80821115610499576000816000905550600101610481565b5090565b90565b600082601f8301126104b157600080fd5b81356104c46104bf82610725565b6106f8565b915080825260208301602083018583830111156104e057600080fd5b6104eb83828461078c565b50505092915050565b600081359050610503816107df565b92915050565b60008060006060848603121561051e57600080fd5b600084013567ffffffffffffffff81111561053857600080fd5b610544868287016104a0565b935050602084013567ffffffffffffffff81111561056157600080fd5b61056d868287016104a0565b925050604061057e868287016104f4565b9150509250925092565b60006020828403121561059a57600080fd5b60006105a8848285016104f4565b91505092915050565b60006105bc82610751565b6105c6818561075c565b93506105d681856020860161079b565b6105df816107ce565b840191505092915050565b60006105f760358361076d565b91507f736f6d656e7465206f20646f6e6f20646f20636f6e747261746f20706f64652060008301527f61646963696f6e61722063616e64696461746f732100000000000000000000006020830152604082019050919050565b6000606083016000830151848203600086015261066d82826105b1565b9150506020830151848203602086015261068782826105b1565b915050604083015161069c60408601826106a7565b508091505092915050565b6106b08161077e565b82525050565b600060208201905081810360008301526106cf816105ea565b9050919050565b600060208201905081810360008301526106f08184610650565b905092915050565b6000604051905081810181811067ffffffffffffffff8211171561071b57600080fd5b8060405250919050565b600067ffffffffffffffff82111561073c57600080fd5b601f19601f8301169050602081019050919050565b600081519050919050565b600082825260208201905092915050565b600082825260208201905092915050565b600061ffff82169050919050565b82818337600083830152505050565b60005b838110156107b957808201518184015260208101905061079e565b838111156107c8576000848401525b50505050565b6000601f19601f8301169050919050565b6107e88161077e565b81146107f357600080fd5b5056fea265627a7a72305820bba6b96c68ae835cdc6045157827d7a5b4df0495f2b146d5db94a8807fb3636f6c6578706572696d656e74616cf50037",
  "source": "pragma solidity ^0.5.1;\r\npragma experimental ABIEncoderV2;\r\n\r\ncontract votacao {\r\n    candidato[] candidatos;\r\n    address owner;\r\n    \r\n    struct candidato{\r\n        string nome;\r\n        string partido;\r\n        uint16 digito;\r\n    }\r\n    \r\n    \r\n    constructor() public {\r\n        owner = msg.sender;\r\n    }\r\n    \r\n    function addCandidato(string memory nome, string memory partido, uint16 digito) public {\r\n        require(owner == msg.sender, \"somente o dono do contrato pode adicionar candidatos!\");\r\n        candidato memory c;\r\n        c.nome = nome;\r\n        c.partido = partido;\r\n        c.digito = digito;\r\n        candidatos.push(c);\r\n    }\r\n    function get(uint16 digito) public view returns (candidato memory){\r\n        for(uint i=0;i<candidatos.length; i++){\r\n            if(candidatos[i].digito == digito){\r\n                return candidatos[i];\r\n            }\r\n        }\r\n    }\r\n}",
  "sourcePath": "C:/Users/webjump-nb013/Documents/TCC/Solidity_learn/compiledSrc/contracts/votacao.sol",
  "compiler": {
    "name": "solc",
    "version": "0.5.8+commit.23d335f2.Emscripten.clang"
  },
  "schemaVersion": "3.0.16",
  "updatedAt": "2019-10-02T15:41:06.099Z",
  "devdoc": {
    "methods": {}
  },
  "userdoc": {
    "methods": {}
  }
}